{
  "address": "0x95201b4dc9b9627FA2de80957CAECE8E02Cd5C31",
  "abi": [
    {
      "inputs": [
        {
          "internalType": "address",
          "name": "vrfCoordinatorV2",
          "type": "address"
        },
        {
          "internalType": "uint256",
          "name": "subscriptionId",
          "type": "uint256"
        },
        {
          "internalType": "bytes32",
          "name": "gasLane",
          "type": "bytes32"
        },
        {
          "internalType": "uint256",
          "name": "mintFee",
          "type": "uint256"
        },
        {
          "internalType": "uint32",
          "name": "callbackGasLimit",
          "type": "uint32"
        },
        {
          "internalType": "string[3]",
          "name": "dogTokenUris",
          "type": "string[3]"
        }
      ],
      "stateMutability": "nonpayable",
      "type": "constructor"
    },
    {
      "inputs": [
        {
          "internalType": "address",
          "name": "have",
          "type": "address"
        },
        {
          "internalType": "address",
          "name": "want",
          "type": "address"
        }
      ],
      "name": "OnlyCoordinatorCanFulfill",
      "type": "error"
    },
    {
      "inputs": [],
      "name": "RandomIpfsNft__NeedMoreETHSent",
      "type": "error"
    },
    {
      "inputs": [],
      "name": "RandomIpfsNft__RangeOutOfBounds",
      "type": "error"
    },
    {
      "inputs": [],
      "name": "RandomIpfsNft__TransferFailed",
      "type": "error"
    },
    {
      "anonymous": false,
      "inputs": [
        {
          "indexed": true,
          "internalType": "address",
          "name": "owner",
          "type": "address"
        },
        {
          "indexed": true,
          "internalType": "address",
          "name": "approved",
          "type": "address"
        },
        {
          "indexed": true,
          "internalType": "uint256",
          "name": "tokenId",
          "type": "uint256"
        }
      ],
      "name": "Approval",
      "type": "event"
    },
    {
      "anonymous": false,
      "inputs": [
        {
          "indexed": true,
          "internalType": "address",
          "name": "owner",
          "type": "address"
        },
        {
          "indexed": true,
          "internalType": "address",
          "name": "operator",
          "type": "address"
        },
        {
          "indexed": false,
          "internalType": "bool",
          "name": "approved",
          "type": "bool"
        }
      ],
      "name": "ApprovalForAll",
      "type": "event"
    },
    {
      "anonymous": false,
      "inputs": [
        {
          "indexed": false,
          "internalType": "uint256",
          "name": "_fromTokenId",
          "type": "uint256"
        },
        {
          "indexed": false,
          "internalType": "uint256",
          "name": "_toTokenId",
          "type": "uint256"
        }
      ],
      "name": "BatchMetadataUpdate",
      "type": "event"
    },
    {
      "anonymous": false,
      "inputs": [
        {
          "indexed": false,
          "internalType": "uint256",
          "name": "_tokenId",
          "type": "uint256"
        }
      ],
      "name": "MetadataUpdate",
      "type": "event"
    },
    {
      "anonymous": false,
      "inputs": [
        {
          "indexed": true,
          "internalType": "uint256",
          "name": "tokenId",
          "type": "uint256"
        },
        {
          "indexed": true,
          "internalType": "enum RandomIpfsNft.Breed",
          "name": "dogBreed",
          "type": "uint8"
        },
        {
          "indexed": true,
          "internalType": "address",
          "name": "minter",
          "type": "address"
        }
      ],
      "name": "NftMinted",
      "type": "event"
    },
    {
      "anonymous": false,
      "inputs": [
        {
          "indexed": true,
          "internalType": "uint256",
          "name": "requestId",
          "type": "uint256"
        },
        {
          "indexed": true,
          "internalType": "address",
          "name": "requester",
          "type": "address"
        }
      ],
      "name": "NftRequested",
      "type": "event"
    },
    {
      "anonymous": false,
      "inputs": [
        {
          "indexed": true,
          "internalType": "address",
          "name": "previousOwner",
          "type": "address"
        },
        {
          "indexed": true,
          "internalType": "address",
          "name": "newOwner",
          "type": "address"
        }
      ],
      "name": "OwnershipTransferred",
      "type": "event"
    },
    {
      "anonymous": false,
      "inputs": [
        {
          "indexed": true,
          "internalType": "address",
          "name": "from",
          "type": "address"
        },
        {
          "indexed": true,
          "internalType": "address",
          "name": "to",
          "type": "address"
        },
        {
          "indexed": true,
          "internalType": "uint256",
          "name": "tokenId",
          "type": "uint256"
        }
      ],
      "name": "Transfer",
      "type": "event"
    },
    {
      "inputs": [
        {
          "internalType": "address",
          "name": "to",
          "type": "address"
        },
        {
          "internalType": "uint256",
          "name": "tokenId",
          "type": "uint256"
        }
      ],
      "name": "approve",
      "outputs": [],
      "stateMutability": "nonpayable",
      "type": "function"
    },
    {
      "inputs": [
        {
          "internalType": "address",
          "name": "owner",
          "type": "address"
        }
      ],
      "name": "balanceOf",
      "outputs": [
        {
          "internalType": "uint256",
          "name": "",
          "type": "uint256"
        }
      ],
      "stateMutability": "view",
      "type": "function"
    },
    {
      "inputs": [
        {
          "internalType": "uint256",
          "name": "tokenId",
          "type": "uint256"
        }
      ],
      "name": "getApproved",
      "outputs": [
        {
          "internalType": "address",
          "name": "",
          "type": "address"
        }
      ],
      "stateMutability": "view",
      "type": "function"
    },
    {
      "inputs": [
        {
          "internalType": "uint256",
          "name": "moddedRng",
          "type": "uint256"
        }
      ],
      "name": "getBreedFromModdedRng",
      "outputs": [
        {
          "internalType": "enum RandomIpfsNft.Breed",
          "name": "",
          "type": "uint8"
        }
      ],
      "stateMutability": "pure",
      "type": "function"
    },
    {
      "inputs": [],
      "name": "getChanceArray",
      "outputs": [
        {
          "internalType": "uint256[3]",
          "name": "",
          "type": "uint256[3]"
        }
      ],
      "stateMutability": "pure",
      "type": "function"
    },
    {
      "inputs": [
        {
          "internalType": "uint256",
          "name": "index",
          "type": "uint256"
        }
      ],
      "name": "getDogTokenUris",
      "outputs": [
        {
          "internalType": "string",
          "name": "",
          "type": "string"
        }
      ],
      "stateMutability": "view",
      "type": "function"
    },
    {
      "inputs": [],
      "name": "getMintFee",
      "outputs": [
        {
          "internalType": "uint256",
          "name": "",
          "type": "uint256"
        }
      ],
      "stateMutability": "view",
      "type": "function"
    },
    {
      "inputs": [],
      "name": "getTokenCounter",
      "outputs": [
        {
          "internalType": "uint256",
          "name": "",
          "type": "uint256"
        }
      ],
      "stateMutability": "view",
      "type": "function"
    },
    {
      "inputs": [
        {
          "internalType": "address",
          "name": "owner",
          "type": "address"
        },
        {
          "internalType": "address",
          "name": "operator",
          "type": "address"
        }
      ],
      "name": "isApprovedForAll",
      "outputs": [
        {
          "internalType": "bool",
          "name": "",
          "type": "bool"
        }
      ],
      "stateMutability": "view",
      "type": "function"
    },
    {
      "inputs": [],
      "name": "name",
      "outputs": [
        {
          "internalType": "string",
          "name": "",
          "type": "string"
        }
      ],
      "stateMutability": "view",
      "type": "function"
    },
    {
      "inputs": [],
      "name": "owner",
      "outputs": [
        {
          "internalType": "address",
          "name": "",
          "type": "address"
        }
      ],
      "stateMutability": "view",
      "type": "function"
    },
    {
      "inputs": [
        {
          "internalType": "uint256",
          "name": "tokenId",
          "type": "uint256"
        }
      ],
      "name": "ownerOf",
      "outputs": [
        {
          "internalType": "address",
          "name": "",
          "type": "address"
        }
      ],
      "stateMutability": "view",
      "type": "function"
    },
    {
      "inputs": [
        {
          "internalType": "uint256",
          "name": "requestId",
          "type": "uint256"
        },
        {
          "internalType": "uint256[]",
          "name": "randomWords",
          "type": "uint256[]"
        }
      ],
      "name": "rawFulfillRandomWords",
      "outputs": [],
      "stateMutability": "nonpayable",
      "type": "function"
    },
    {
      "inputs": [],
      "name": "renounceOwnership",
      "outputs": [],
      "stateMutability": "nonpayable",
      "type": "function"
    },
    {
      "inputs": [],
      "name": "requestNft",
      "outputs": [
        {
          "internalType": "uint256",
          "name": "requestId",
          "type": "uint256"
        }
      ],
      "stateMutability": "payable",
      "type": "function"
    },
    {
      "inputs": [
        {
          "internalType": "uint256",
          "name": "",
          "type": "uint256"
        }
      ],
      "name": "s_requestIdToSender",
      "outputs": [
        {
          "internalType": "address",
          "name": "",
          "type": "address"
        }
      ],
      "stateMutability": "view",
      "type": "function"
    },
    {
      "inputs": [],
      "name": "s_tokenCounter",
      "outputs": [
        {
          "internalType": "uint256",
          "name": "",
          "type": "uint256"
        }
      ],
      "stateMutability": "view",
      "type": "function"
    },
    {
      "inputs": [
        {
          "internalType": "address",
          "name": "from",
          "type": "address"
        },
        {
          "internalType": "address",
          "name": "to",
          "type": "address"
        },
        {
          "internalType": "uint256",
          "name": "tokenId",
          "type": "uint256"
        }
      ],
      "name": "safeTransferFrom",
      "outputs": [],
      "stateMutability": "nonpayable",
      "type": "function"
    },
    {
      "inputs": [
        {
          "internalType": "address",
          "name": "from",
          "type": "address"
        },
        {
          "internalType": "address",
          "name": "to",
          "type": "address"
        },
        {
          "internalType": "uint256",
          "name": "tokenId",
          "type": "uint256"
        },
        {
          "internalType": "bytes",
          "name": "data",
          "type": "bytes"
        }
      ],
      "name": "safeTransferFrom",
      "outputs": [],
      "stateMutability": "nonpayable",
      "type": "function"
    },
    {
      "inputs": [
        {
          "internalType": "address",
          "name": "operator",
          "type": "address"
        },
        {
          "internalType": "bool",
          "name": "approved",
          "type": "bool"
        }
      ],
      "name": "setApprovalForAll",
      "outputs": [],
      "stateMutability": "nonpayable",
      "type": "function"
    },
    {
      "inputs": [
        {
          "internalType": "bytes4",
          "name": "interfaceId",
          "type": "bytes4"
        }
      ],
      "name": "supportsInterface",
      "outputs": [
        {
          "internalType": "bool",
          "name": "",
          "type": "bool"
        }
      ],
      "stateMutability": "view",
      "type": "function"
    },
    {
      "inputs": [],
      "name": "symbol",
      "outputs": [
        {
          "internalType": "string",
          "name": "",
          "type": "string"
        }
      ],
      "stateMutability": "view",
      "type": "function"
    },
    {
      "inputs": [
        {
          "internalType": "uint256",
          "name": "tokenId",
          "type": "uint256"
        }
      ],
      "name": "tokenURI",
      "outputs": [
        {
          "internalType": "string",
          "name": "",
          "type": "string"
        }
      ],
      "stateMutability": "view",
      "type": "function"
    },
    {
      "inputs": [
        {
          "internalType": "address",
          "name": "from",
          "type": "address"
        },
        {
          "internalType": "address",
          "name": "to",
          "type": "address"
        },
        {
          "internalType": "uint256",
          "name": "tokenId",
          "type": "uint256"
        }
      ],
      "name": "transferFrom",
      "outputs": [],
      "stateMutability": "nonpayable",
      "type": "function"
    },
    {
      "inputs": [
        {
          "internalType": "address",
          "name": "newOwner",
          "type": "address"
        }
      ],
      "name": "transferOwnership",
      "outputs": [],
      "stateMutability": "nonpayable",
      "type": "function"
    },
    {
      "inputs": [],
      "name": "withdraw",
      "outputs": [],
      "stateMutability": "nonpayable",
      "type": "function"
    }
  ],
  "transactionHash": "0xd3c34a38cd46b88c1499449b59d91dcc7734f3bd3ccc8c6ff11413d1035bc572",
  "args": [
    "0x7E10652Cb79Ba97bC1D0F38a1e8FaD8464a8a908",
    "82552481492719641598106587877252959688609853062389465704760740256481593202832",
    "0x3f631d5ec60a0ce16203bcd6aff7ffbc423e22e452786288e172d467354304c8",
    "10000000000000000",
    "500000",
    [
      "ipfs://QmaVkBn2tKmjbhphU7eyztbvSQU5EXDdqRyXZtRhSGgJGo",
      "ipfs://QmYQC5aGZu2PTH8XzbJrbDnvhj3gVs7ya33H9mqUNvST3d",
      "ipfs://QmZYmH5iDbD6v3U2ixoVAjioSzvWJszDzYdbeCLquGSpVm"
    ]
  ],
  "numDeployments": 1,
  "solcInputHash": "84404907b586766c7a28aa17ccc81b37",
  "bytecode": "0x6101406040523480156200001257600080fd5b506040516200446d3803806200446d8339818101604052810190620000389190620005a9565b6040518060400160405280600f81526020017f52616e646f6d2049504653204e465400000000000000000000000000000000008152506040518060400160405280600381526020017f52494e0000000000000000000000000000000000000000000000000000000000815250878073ffffffffffffffffffffffffffffffffffffffff1660808173ffffffffffffffffffffffffffffffffffffffff1660601b81525050508160009080519060200190620000f592919062000287565b5080600190805190602001906200010e92919062000287565b5050506200013162000125620001b960201b60201c565b620001c160201b60201c565b8573ffffffffffffffffffffffffffffffffffffffff1660a08173ffffffffffffffffffffffffffffffffffffffff1660601b815250508460c081815250508360e081815250508163ffffffff166101008163ffffffff1660e01b8152505080600a906003620001a392919062000318565b50826101208181525050505050505050620008d6565b600033905090565b6000600760009054906101000a900473ffffffffffffffffffffffffffffffffffffffff16905081600760006101000a81548173ffffffffffffffffffffffffffffffffffffffff021916908373ffffffffffffffffffffffffffffffffffffffff1602179055508173ffffffffffffffffffffffffffffffffffffffff168173ffffffffffffffffffffffffffffffffffffffff167f8be0079c531659141344cd1fd0a4f28419497f9722a3daafe3b4186f6b6457e060405160405180910390a35050565b82805462000295906200077a565b90600052602060002090601f016020900481019282620002b9576000855562000305565b82601f10620002d457805160ff191683800117855562000305565b8280016001018555821562000305579182015b8281111562000304578251825591602001919060010190620002e7565b5b5090506200031491906200037f565b5090565b8280548282559060005260206000209081019282156200036c579160200282015b828111156200036b5782518290805190602001906200035a92919062000287565b509160200191906001019062000339565b5b5090506200037b91906200039e565b5090565b5b808211156200039a57600081600090555060010162000380565b5090565b5b80821115620003c25760008181620003b89190620003c6565b506001016200039f565b5090565b508054620003d4906200077a565b6000825580601f10620003e8575062000409565b601f0160209004906000526020600020908101906200040891906200037f565b5b50565b6000620004236200041d846200068d565b62000664565b9050808285602086028201111562000440576200043f62000849565b5b60005b858110156200049557815167ffffffffffffffff8111156200046a576200046962000844565b5b80860162000479898262000548565b8552602085019450602084019350505060018101905062000443565b5050509392505050565b6000620004b6620004b084620006b6565b62000664565b905082815260208101848484011115620004d557620004d46200084e565b5b620004e284828562000744565b509392505050565b600081519050620004fb816200086e565b92915050565b600082601f83011262000519576200051862000844565b5b6003620005288482856200040c565b91505092915050565b600081519050620005428162000888565b92915050565b600082601f83011262000560576200055f62000844565b5b8151620005728482602086016200049f565b91505092915050565b6000815190506200058c81620008a2565b92915050565b600081519050620005a381620008bc565b92915050565b60008060008060008060c08789031215620005c957620005c862000858565b5b6000620005d989828a01620004ea565b9650506020620005ec89828a016200057b565b9550506040620005ff89828a0162000531565b94505060606200061289828a016200057b565b93505060806200062589828a0162000592565b92505060a087015167ffffffffffffffff81111562000649576200064862000853565b5b6200065789828a0162000501565b9150509295509295509295565b60006200067062000683565b90506200067e8282620007b0565b919050565b6000604051905090565b600067ffffffffffffffff821115620006ab57620006aa62000815565b5b602082029050919050565b600067ffffffffffffffff821115620006d457620006d362000815565b5b620006df826200085d565b9050602081019050919050565b6000620006f9826200070a565b9050919050565b6000819050919050565b600073ffffffffffffffffffffffffffffffffffffffff82169050919050565b6000819050919050565b600063ffffffff82169050919050565b60005b838110156200076457808201518184015260208101905062000747565b8381111562000774576000848401525b50505050565b600060028204905060018216806200079357607f821691505b60208210811415620007aa57620007a9620007e6565b5b50919050565b620007bb826200085d565b810181811067ffffffffffffffff82111715620007dd57620007dc62000815565b5b80604052505050565b7f4e487b7100000000000000000000000000000000000000000000000000000000600052602260045260246000fd5b7f4e487b7100000000000000000000000000000000000000000000000000000000600052604160045260246000fd5b600080fd5b600080fd5b600080fd5b600080fd5b600080fd5b6000601f19601f8301169050919050565b6200087981620006ec565b81146200088557600080fd5b50565b620008938162000700565b81146200089f57600080fd5b50565b620008ad816200072a565b8114620008b957600080fd5b50565b620008c78162000734565b8114620008d357600080fd5b50565b60805160601c60a05160601c60c05160e0516101005160e01c61012051613b306200093d60003960008181610cca0152610ec301526000610f9d01526000610f5901526000610f7a01526000610f1d01526000818161089c01526108f00152613b306000f3fe6080604052600436106101815760003560e01c806370a08231116100d1578063a36f573b1161008a578063b88d4fde11610064578063b88d4fde14610577578063c87b56dd146105a0578063e985e9c5146105dd578063f2fde38b1461061a57610181565b8063a36f573b146104df578063a51cccf31461051c578063aa1524911461055957610181565b806370a08231146103e1578063715018a61461041e5780637a5caab3146104355780638da5cb5b1461046057806395d89b411461048b578063a22cb465146104b657610181565b806323b872dd1161013e57806342842e0e1161011857806342842e0e146103255780635dacf5f41461034e5780636352211e146103795780636e02007d146103b657610181565b806323b872dd146102a85780633af25975146102d15780633ccfd60b1461030e57610181565b806301ffc9a71461018657806306fdde03146101c3578063081812fc146101ee578063095ea7b31461022b5780630b21a83b146102545780631fe543e31461027f575b600080fd5b34801561019257600080fd5b506101ad60048036038101906101a89190612a48565b610643565b6040516101ba9190612fe2565b60405180910390f35b3480156101cf57600080fd5b506101d86106a4565b6040516101e5919061306b565b60405180910390f35b3480156101fa57600080fd5b5061021560048036038101906102109190612aa2565b610736565b6040516102229190612f37565b60405180910390f35b34801561023757600080fd5b50610252600480360381019061024d9190612a08565b61077c565b005b34801561026057600080fd5b50610269610894565b604051610276919061324d565b60405180910390f35b34801561028b57600080fd5b506102a660048036038101906102a19190612afc565b61089a565b005b3480156102b457600080fd5b506102cf60048036038101906102ca91906128f2565b61095a565b005b3480156102dd57600080fd5b506102f860048036038101906102f39190612aa2565b6109ba565b604051610305919061306b565b60405180910390f35b34801561031a57600080fd5b50610323610a6a565b005b34801561033157600080fd5b5061034c600480360381019061034791906128f2565b610b1e565b005b34801561035a57600080fd5b50610363610b3e565b6040516103709190612fc7565b60405180910390f35b34801561038557600080fd5b506103a0600480360381019061039b9190612aa2565b610b69565b6040516103ad9190612f37565b60405180910390f35b3480156103c257600080fd5b506103cb610bf0565b6040516103d8919061324d565b60405180910390f35b3480156103ed57600080fd5b5061040860048036038101906104039190612885565b610bfa565b604051610415919061324d565b60405180910390f35b34801561042a57600080fd5b50610433610cb2565b005b34801561044157600080fd5b5061044a610cc6565b604051610457919061324d565b60405180910390f35b34801561046c57600080fd5b50610475610cee565b6040516104829190612f37565b60405180910390f35b34801561049757600080fd5b506104a0610d18565b6040516104ad919061306b565b60405180910390f35b3480156104c257600080fd5b506104dd60048036038101906104d891906129c8565b610daa565b005b3480156104eb57600080fd5b5061050660048036038101906105019190612aa2565b610dc0565b6040516105139190612f37565b60405180910390f35b34801561052857600080fd5b50610543600480360381019061053e9190612aa2565b610df3565b6040516105509190613050565b60405180910390f35b610561610ebf565b60405161056e919061324d565b60405180910390f35b34801561058357600080fd5b5061059e60048036038101906105999190612945565b6110cb565b005b3480156105ac57600080fd5b506105c760048036038101906105c29190612aa2565b61112d565b6040516105d4919061306b565b60405180910390f35b3480156105e957600080fd5b5061060460048036038101906105ff91906128b2565b611240565b6040516106119190612fe2565b60405180910390f35b34801561062657600080fd5b50610641600480360381019061063c9190612885565b6112d4565b005b6000634906490660e01b7bffffffffffffffffffffffffffffffffffffffffffffffffffffffff1916827bffffffffffffffffffffffffffffffffffffffffffffffffffffffff1916148061069d575061069c82611358565b5b9050919050565b6060600080546106b3906134d2565b80601f01602080910402602001604051908101604052809291908181526020018280546106df906134d2565b801561072c5780601f106107015761010080835404028352916020019161072c565b820191906000526020600020905b81548152906001019060200180831161070f57829003601f168201915b5050505050905090565b60006107418261143a565b6004600083815260200190815260200160002060009054906101000a900473ffffffffffffffffffffffffffffffffffffffff169050919050565b600061078782610b69565b90508073ffffffffffffffffffffffffffffffffffffffff168373ffffffffffffffffffffffffffffffffffffffff1614156107f8576040517f08c379a00000000000000000000000000000000000000000000000000000000081526004016107ef9061320d565b60405180910390fd5b8073ffffffffffffffffffffffffffffffffffffffff16610817611485565b73ffffffffffffffffffffffffffffffffffffffff161480610846575061084581610840611485565b611240565b5b610885576040517f08c379a000000000000000000000000000000000000000000000000000000000815260040161087c9061322d565b60405180910390fd5b61088f838361148d565b505050565b60095481565b7f000000000000000000000000000000000000000000000000000000000000000073ffffffffffffffffffffffffffffffffffffffff163373ffffffffffffffffffffffffffffffffffffffff161461094c57337f00000000000000000000000000000000000000000000000000000000000000006040517f1cf993f4000000000000000000000000000000000000000000000000000000008152600401610943929190612f52565b60405180910390fd5b6109568282611546565b5050565b61096b610965611485565b826116fe565b6109aa576040517f08c379a00000000000000000000000000000000000000000000000000000000081526004016109a19061308d565b60405180910390fd5b6109b5838383611793565b505050565b6060600a82815481106109d0576109cf61366b565b5b9060005260206000200180546109e5906134d2565b80601f0160208091040260200160405190810160405280929190818152602001828054610a11906134d2565b8015610a5e5780601f10610a3357610100808354040283529160200191610a5e565b820191906000526020600020905b815481529060010190602001808311610a4157829003601f168201915b50505050509050919050565b610a72611a8d565b600047905060003373ffffffffffffffffffffffffffffffffffffffff1682604051610a9d90612f22565b60006040518083038185875af1925050503d8060008114610ada576040519150601f19603f3d011682016040523d82523d6000602084013e610adf565b606091505b5050905080610b1a576040517fca7e25b700000000000000000000000000000000000000000000000000000000815260040160405180910390fd5b5050565b610b39838383604051806020016040528060008152506110cb565b505050565b610b46612634565b6040518060600160405280600a8152602001601e81526020016064815250905090565b600080610b7583611b0b565b9050600073ffffffffffffffffffffffffffffffffffffffff168173ffffffffffffffffffffffffffffffffffffffff161415610be7576040517f08c379a0000000000000000000000000000000000000000000000000000000008152600401610bde906131ed565b60405180910390fd5b80915050919050565b6000600954905090565b60008073ffffffffffffffffffffffffffffffffffffffff168273ffffffffffffffffffffffffffffffffffffffff161415610c6b576040517f08c379a0000000000000000000000000000000000000000000000000000000008152600401610c629061316d565b60405180910390fd5b600360008373ffffffffffffffffffffffffffffffffffffffff1673ffffffffffffffffffffffffffffffffffffffff168152602001908152602001600020549050919050565b610cba611a8d565b610cc46000611b48565b565b60007f0000000000000000000000000000000000000000000000000000000000000000905090565b6000600760009054906101000a900473ffffffffffffffffffffffffffffffffffffffff16905090565b606060018054610d27906134d2565b80601f0160208091040260200160405190810160405280929190818152602001828054610d53906134d2565b8015610da05780601f10610d7557610100808354040283529160200191610da0565b820191906000526020600020905b815481529060010190602001808311610d8357829003601f168201915b5050505050905090565b610dbc610db5611485565b8383611c0e565b5050565b60086020528060005260406000206000915054906101000a900473ffffffffffffffffffffffffffffffffffffffff1681565b600080600090506000610e04610b3e565b905060005b6003811015610e8757828510158015610e385750818160038110610e3057610e2f61366b565b5b602002015185105b15610e5a57806002811115610e5057610e4f61360d565b5b9350505050610eba565b818160038110610e6d57610e6c61366b565b5b602002015192508080610e7f90613535565b915050610e09565b506040517f12806c9d00000000000000000000000000000000000000000000000000000000815260040160405180910390fd5b919050565b60007f0000000000000000000000000000000000000000000000000000000000000000341015610f1b576040517fb90f491000000000000000000000000000000000000000000000000000000000815260040160405180910390fd5b7f000000000000000000000000000000000000000000000000000000000000000073ffffffffffffffffffffffffffffffffffffffff16635d3b1d307f00000000000000000000000000000000000000000000000000000000000000007f000000000000000000000000000000000000000000000000000000000000000060037f000000000000000000000000000000000000000000000000000000000000000060016040518663ffffffff1660e01b8152600401610fde959493929190612ffd565b602060405180830381600087803b158015610ff857600080fd5b505af115801561100c573d6000803e3d6000fd5b505050506040513d601f19601f820116820180604052508101906110309190612acf565b9050336008600083815260200190815260200160002060006101000a81548173ffffffffffffffffffffffffffffffffffffffff021916908373ffffffffffffffffffffffffffffffffffffffff1602179055503373ffffffffffffffffffffffffffffffffffffffff16817ff873236e6cc0ecc5be1a9a35c95ee5b8d1ac4cc7bfef0cc5060391d6cc98e26b60405160405180910390a390565b6110dc6110d6611485565b836116fe565b61111b576040517f08c379a00000000000000000000000000000000000000000000000000000000081526004016111129061308d565b60405180910390fd5b61112784848484611d7b565b50505050565b60606111388261143a565b6000600660008481526020019081526020016000208054611158906134d2565b80601f0160208091040260200160405190810160405280929190818152602001828054611184906134d2565b80156111d15780601f106111a6576101008083540402835291602001916111d1565b820191906000526020600020905b8154815290600101906020018083116111b457829003601f168201915b5050505050905060006111e2611dd7565b90506000815114156111f857819250505061123b565b60008251111561122d578082604051602001611215929190612efe565b6040516020818303038152906040529250505061123b565b61123684611dee565b925050505b919050565b6000600560008473ffffffffffffffffffffffffffffffffffffffff1673ffffffffffffffffffffffffffffffffffffffff16815260200190815260200160002060008373ffffffffffffffffffffffffffffffffffffffff1673ffffffffffffffffffffffffffffffffffffffff16815260200190815260200160002060009054906101000a900460ff16905092915050565b6112dc611a8d565b600073ffffffffffffffffffffffffffffffffffffffff168173ffffffffffffffffffffffffffffffffffffffff16141561134c576040517f08c379a0000000000000000000000000000000000000000000000000000000008152600401611343906130cd565b60405180910390fd5b61135581611b48565b50565b60007f80ac58cd000000000000000000000000000000000000000000000000000000007bffffffffffffffffffffffffffffffffffffffffffffffffffffffff1916827bffffffffffffffffffffffffffffffffffffffffffffffffffffffff1916148061142357507f5b5e139f000000000000000000000000000000000000000000000000000000007bffffffffffffffffffffffffffffffffffffffffffffffffffffffff1916827bffffffffffffffffffffffffffffffffffffffffffffffffffffffff1916145b80611433575061143282611e56565b5b9050919050565b61144381611ec0565b611482576040517f08c379a0000000000000000000000000000000000000000000000000000000008152600401611479906131ed565b60405180910390fd5b50565b600033905090565b816004600083815260200190815260200160002060006101000a81548173ffffffffffffffffffffffffffffffffffffffff021916908373ffffffffffffffffffffffffffffffffffffffff160217905550808273ffffffffffffffffffffffffffffffffffffffff1661150083610b69565b73ffffffffffffffffffffffffffffffffffffffff167f8c5be1e5ebec7d5bd14f71427d1e84f3dd0314c0f7b2291e5b200ac8c7c3b92560405160405180910390a45050565b60006008600084815260200190815260200160002060009054906101000a900473ffffffffffffffffffffffffffffffffffffffff16905060006009549050600060648460008151811061159d5761159c61366b565b5b60200260200101516115af919061357e565b905060006115bc82610df3565b90506115c88484611f01565b61168a83600a8360028111156115e1576115e061360d565b5b815481106115f2576115f161366b565b5b906000526020600020018054611607906134d2565b80601f0160208091040260200160405190810160405280929190818152602001828054611633906134d2565b80156116805780601f1061165557610100808354040283529160200191611680565b820191906000526020600020905b81548152906001019060200180831161166357829003601f168201915b5050505050611f1f565b8373ffffffffffffffffffffffffffffffffffffffff168160028111156116b4576116b361360d565b5b847f826d84de86b9d47351ad75c90b9a8b7211e761e448ccd64623fc26341dd0b8dc60405160405180910390a460016009546116f09190613365565b600981905550505050505050565b60008061170a83610b69565b90508073ffffffffffffffffffffffffffffffffffffffff168473ffffffffffffffffffffffffffffffffffffffff16148061174c575061174b8185611240565b5b8061178a57508373ffffffffffffffffffffffffffffffffffffffff1661177284610736565b73ffffffffffffffffffffffffffffffffffffffff16145b91505092915050565b8273ffffffffffffffffffffffffffffffffffffffff166117b382610b69565b73ffffffffffffffffffffffffffffffffffffffff1614611809576040517f08c379a0000000000000000000000000000000000000000000000000000000008152600401611800906130ed565b60405180910390fd5b600073ffffffffffffffffffffffffffffffffffffffff168273ffffffffffffffffffffffffffffffffffffffff161415611879576040517f08c379a00000000000000000000000000000000000000000000000000000000081526004016118709061312d565b60405180910390fd5b6118868383836001611fca565b8273ffffffffffffffffffffffffffffffffffffffff166118a682610b69565b73ffffffffffffffffffffffffffffffffffffffff16146118fc576040517f08c379a00000000000000000000000000000000000000000000000000000000081526004016118f3906130ed565b60405180910390fd5b6004600082815260200190815260200160002060006101000a81549073ffffffffffffffffffffffffffffffffffffffff02191690556001600360008573ffffffffffffffffffffffffffffffffffffffff1673ffffffffffffffffffffffffffffffffffffffff168152602001908152602001600020600082825403925050819055506001600360008473ffffffffffffffffffffffffffffffffffffffff1673ffffffffffffffffffffffffffffffffffffffff16815260200190815260200160002060008282540192505081905550816002600083815260200190815260200160002060006101000a81548173ffffffffffffffffffffffffffffffffffffffff021916908373ffffffffffffffffffffffffffffffffffffffff160217905550808273ffffffffffffffffffffffffffffffffffffffff168473ffffffffffffffffffffffffffffffffffffffff167fddf252ad1be2c89b69c2b068fc378daa952ba7f163c4a11628f55a4df523b3ef60405160405180910390a4611a888383836001611fd0565b505050565b611a95611485565b73ffffffffffffffffffffffffffffffffffffffff16611ab3610cee565b73ffffffffffffffffffffffffffffffffffffffff1614611b09576040517f08c379a0000000000000000000000000000000000000000000000000000000008152600401611b00906131cd565b60405180910390fd5b565b60006002600083815260200190815260200160002060009054906101000a900473ffffffffffffffffffffffffffffffffffffffff169050919050565b6000600760009054906101000a900473ffffffffffffffffffffffffffffffffffffffff16905081600760006101000a81548173ffffffffffffffffffffffffffffffffffffffff021916908373ffffffffffffffffffffffffffffffffffffffff1602179055508173ffffffffffffffffffffffffffffffffffffffff168173ffffffffffffffffffffffffffffffffffffffff167f8be0079c531659141344cd1fd0a4f28419497f9722a3daafe3b4186f6b6457e060405160405180910390a35050565b8173ffffffffffffffffffffffffffffffffffffffff168373ffffffffffffffffffffffffffffffffffffffff161415611c7d576040517f08c379a0000000000000000000000000000000000000000000000000000000008152600401611c749061314d565b60405180910390fd5b80600560008573ffffffffffffffffffffffffffffffffffffffff1673ffffffffffffffffffffffffffffffffffffffff16815260200190815260200160002060008473ffffffffffffffffffffffffffffffffffffffff1673ffffffffffffffffffffffffffffffffffffffff16815260200190815260200160002060006101000a81548160ff0219169083151502179055508173ffffffffffffffffffffffffffffffffffffffff168373ffffffffffffffffffffffffffffffffffffffff167f17307eab39ab6107e8899845ad3d59bd9653f200f220920489ca2b5937696c3183604051611d6e9190612fe2565b60405180910390a3505050565b611d86848484611793565b611d9284848484611fd6565b611dd1576040517f08c379a0000000000000000000000000000000000000000000000000000000008152600401611dc8906130ad565b60405180910390fd5b50505050565b606060405180602001604052806000815250905090565b6060611df98261143a565b6000611e03611dd7565b90506000815111611e235760405180602001604052806000815250611e4e565b80611e2d8461216d565b604051602001611e3e929190612efe565b6040516020818303038152906040525b915050919050565b60007f01ffc9a7000000000000000000000000000000000000000000000000000000007bffffffffffffffffffffffffffffffffffffffffffffffffffffffff1916827bffffffffffffffffffffffffffffffffffffffffffffffffffffffff1916149050919050565b60008073ffffffffffffffffffffffffffffffffffffffff16611ee283611b0b565b73ffffffffffffffffffffffffffffffffffffffff1614159050919050565b611f1b828260405180602001604052806000815250612245565b5050565b611f2882611ec0565b611f67576040517f08c379a0000000000000000000000000000000000000000000000000000000008152600401611f5e9061318d565b60405180910390fd5b80600660008481526020019081526020016000209080519060200190611f8e929190612656565b507ff8e1a15aba9398e019f0b49df1a4fde98ee17ae345cb5f6b5e2c27f5033e8ce782604051611fbe919061324d565b60405180910390a15050565b50505050565b50505050565b6000611ff78473ffffffffffffffffffffffffffffffffffffffff166122a0565b15612160578373ffffffffffffffffffffffffffffffffffffffff1663150b7a02612020611485565b8786866040518563ffffffff1660e01b81526004016120429493929190612f7b565b602060405180830381600087803b15801561205c57600080fd5b505af192505050801561208d57506040513d601f19601f8201168201806040525081019061208a9190612a75565b60015b612110573d80600081146120bd576040519150601f19603f3d011682016040523d82523d6000602084013e6120c2565b606091505b50600081511415612108576040517f08c379a00000000000000000000000000000000000000000000000000000000081526004016120ff906130ad565b60405180910390fd5b805181602001fd5b63150b7a0260e01b7bffffffffffffffffffffffffffffffffffffffffffffffffffffffff1916817bffffffffffffffffffffffffffffffffffffffffffffffffffffffff191614915050612165565b600190505b949350505050565b60606000600161217c846122c3565b01905060008167ffffffffffffffff81111561219b5761219a61369a565b5b6040519080825280601f01601f1916602001820160405280156121cd5781602001600182028036833780820191505090505b509050600082602001820190505b60011561223a578080600190039150507f3031323334353637383961626364656600000000000000000000000000000000600a86061a8153600a8581612224576122236135de565b5b04945060008514156122355761223a565b6121db565b819350505050919050565b61224f8383612416565b61225c6000848484611fd6565b61229b576040517f08c379a0000000000000000000000000000000000000000000000000000000008152600401612292906130ad565b60405180910390fd5b505050565b6000808273ffffffffffffffffffffffffffffffffffffffff163b119050919050565b600080600090507a184f03e93ff9f4daa797ed6e38ed64bf6a1f0100000000000000008310612321577a184f03e93ff9f4daa797ed6e38ed64bf6a1f0100000000000000008381612317576123166135de565b5b0492506040810190505b6d04ee2d6d415b85acef8100000000831061235e576d04ee2d6d415b85acef81000000008381612354576123536135de565b5b0492506020810190505b662386f26fc10000831061238d57662386f26fc100008381612383576123826135de565b5b0492506010810190505b6305f5e10083106123b6576305f5e10083816123ac576123ab6135de565b5b0492506008810190505b61271083106123db5761271083816123d1576123d06135de565b5b0492506004810190505b606483106123fe57606483816123f4576123f36135de565b5b0492506002810190505b600a831061240d576001810190505b80915050919050565b600073ffffffffffffffffffffffffffffffffffffffff168273ffffffffffffffffffffffffffffffffffffffff161415612486576040517f08c379a000000000000000000000000000000000000000000000000000000000815260040161247d906131ad565b60405180910390fd5b61248f81611ec0565b156124cf576040517f08c379a00000000000000000000000000000000000000000000000000000000081526004016124c69061310d565b60405180910390fd5b6124dd600083836001611fca565b6124e681611ec0565b15612526576040517f08c379a000000000000000000000000000000000000000000000000000000000815260040161251d9061310d565b60405180910390fd5b6001600360008473ffffffffffffffffffffffffffffffffffffffff1673ffffffffffffffffffffffffffffffffffffffff16815260200190815260200160002060008282540192505081905550816002600083815260200190815260200160002060006101000a81548173ffffffffffffffffffffffffffffffffffffffff021916908373ffffffffffffffffffffffffffffffffffffffff160217905550808273ffffffffffffffffffffffffffffffffffffffff16600073ffffffffffffffffffffffffffffffffffffffff167fddf252ad1be2c89b69c2b068fc378daa952ba7f163c4a11628f55a4df523b3ef60405160405180910390a4612630600083836001611fd0565b5050565b6040518060600160405280600390602082028036833780820191505090505090565b828054612662906134d2565b90600052602060002090601f01602090048101928261268457600085556126cb565b82601f1061269d57805160ff19168380011785556126cb565b828001600101855582156126cb579182015b828111156126ca5782518255916020019190600101906126af565b5b5090506126d891906126dc565b5090565b5b808211156126f55760008160009055506001016126dd565b5090565b600061270c6127078461328d565b613268565b9050808382526020820190508285602086028201111561272f5761272e6136ce565b5b60005b8581101561275f5781612745888261285b565b845260208401935060208301925050600181019050612732565b5050509392505050565b600061277c612777846132b9565b613268565b905082815260208101848484011115612798576127976136d3565b5b6127a3848285613490565b509392505050565b6000813590506127ba81613a9e565b92915050565b600082601f8301126127d5576127d46136c9565b5b81356127e58482602086016126f9565b91505092915050565b6000813590506127fd81613ab5565b92915050565b60008135905061281281613acc565b92915050565b60008151905061282781613acc565b92915050565b600082601f830112612842576128416136c9565b5b8135612852848260208601612769565b91505092915050565b60008135905061286a81613ae3565b92915050565b60008151905061287f81613ae3565b92915050565b60006020828403121561289b5761289a6136dd565b5b60006128a9848285016127ab565b91505092915050565b600080604083850312156128c9576128c86136dd565b5b60006128d7858286016127ab565b92505060206128e8858286016127ab565b9150509250929050565b60008060006060848603121561290b5761290a6136dd565b5b6000612919868287016127ab565b935050602061292a868287016127ab565b925050604061293b8682870161285b565b9150509250925092565b6000806000806080858703121561295f5761295e6136dd565b5b600061296d878288016127ab565b945050602061297e878288016127ab565b935050604061298f8782880161285b565b925050606085013567ffffffffffffffff8111156129b0576129af6136d8565b5b6129bc8782880161282d565b91505092959194509250565b600080604083850312156129df576129de6136dd565b5b60006129ed858286016127ab565b92505060206129fe858286016127ee565b9150509250929050565b60008060408385031215612a1f57612a1e6136dd565b5b6000612a2d858286016127ab565b9250506020612a3e8582860161285b565b9150509250929050565b600060208284031215612a5e57612a5d6136dd565b5b6000612a6c84828501612803565b91505092915050565b600060208284031215612a8b57612a8a6136dd565b5b6000612a9984828501612818565b91505092915050565b600060208284031215612ab857612ab76136dd565b5b6000612ac68482850161285b565b91505092915050565b600060208284031215612ae557612ae46136dd565b5b6000612af384828501612870565b91505092915050565b60008060408385031215612b1357612b126136dd565b5b6000612b218582860161285b565b925050602083013567ffffffffffffffff811115612b4257612b416136d8565b5b612b4e858286016127c0565b9150509250929050565b6000612b648383612ec2565b60208301905092915050565b612b79816133bb565b82525050565b612b88816132f4565b612b928184613322565b9250612b9d826132ea565b8060005b83811015612bce578151612bb58782612b58565b9650612bc083613315565b925050600181019050612ba1565b505050505050565b612bdf816133cd565b82525050565b612bee816133d9565b82525050565b6000612bff826132ff565b612c09818561332d565b9350612c1981856020860161349f565b612c22816136e2565b840191505092915050565b612c368161347e565b82525050565b6000612c478261330a565b612c518185613349565b9350612c6181856020860161349f565b612c6a816136e2565b840191505092915050565b6000612c808261330a565b612c8a818561335a565b9350612c9a81856020860161349f565b80840191505092915050565b6000612cb3602d83613349565b9150612cbe826136f3565b604082019050919050565b6000612cd6603283613349565b9150612ce182613742565b604082019050919050565b6000612cf9602683613349565b9150612d0482613791565b604082019050919050565b6000612d1c602583613349565b9150612d27826137e0565b604082019050919050565b6000612d3f601c83613349565b9150612d4a8261382f565b602082019050919050565b6000612d62602483613349565b9150612d6d82613858565b604082019050919050565b6000612d85601983613349565b9150612d90826138a7565b602082019050919050565b6000612da8602983613349565b9150612db3826138d0565b604082019050919050565b6000612dcb602e83613349565b9150612dd68261391f565b604082019050919050565b6000612dee602083613349565b9150612df98261396e565b602082019050919050565b6000612e11602083613349565b9150612e1c82613997565b602082019050919050565b6000612e34601883613349565b9150612e3f826139c0565b602082019050919050565b6000612e57602183613349565b9150612e62826139e9565b604082019050919050565b6000612e7a60008361333e565b9150612e8582613a38565b600082019050919050565b6000612e9d603d83613349565b9150612ea882613a3b565b604082019050919050565b612ebc81613422565b82525050565b612ecb81613450565b82525050565b612eda81613450565b82525050565b612ee98161345a565b82525050565b612ef88161346a565b82525050565b6000612f0a8285612c75565b9150612f168284612c75565b91508190509392505050565b6000612f2d82612e6d565b9150819050919050565b6000602082019050612f4c6000830184612b70565b92915050565b6000604082019050612f676000830185612b70565b612f746020830184612b70565b9392505050565b6000608082019050612f906000830187612b70565b612f9d6020830186612b70565b612faa6040830185612ed1565b8181036060830152612fbc8184612bf4565b905095945050505050565b6000606082019050612fdc6000830184612b7f565b92915050565b6000602082019050612ff76000830184612bd6565b92915050565b600060a0820190506130126000830188612be5565b61301f6020830187612eef565b61302c6040830186612eb3565b6130396060830185612ee0565b6130466080830184612ee0565b9695505050505050565b60006020820190506130656000830184612c2d565b92915050565b600060208201905081810360008301526130858184612c3c565b905092915050565b600060208201905081810360008301526130a681612ca6565b9050919050565b600060208201905081810360008301526130c681612cc9565b9050919050565b600060208201905081810360008301526130e681612cec565b9050919050565b6000602082019050818103600083015261310681612d0f565b9050919050565b6000602082019050818103600083015261312681612d32565b9050919050565b6000602082019050818103600083015261314681612d55565b9050919050565b6000602082019050818103600083015261316681612d78565b9050919050565b6000602082019050818103600083015261318681612d9b565b9050919050565b600060208201905081810360008301526131a681612dbe565b9050919050565b600060208201905081810360008301526131c681612de1565b9050919050565b600060208201905081810360008301526131e681612e04565b9050919050565b6000602082019050818103600083015261320681612e27565b9050919050565b6000602082019050818103600083015261322681612e4a565b9050919050565b6000602082019050818103600083015261324681612e90565b9050919050565b60006020820190506132626000830184612ed1565b92915050565b6000613272613283565b905061327e8282613504565b919050565b6000604051905090565b600067ffffffffffffffff8211156132a8576132a761369a565b5b602082029050602081019050919050565b600067ffffffffffffffff8211156132d4576132d361369a565b5b6132dd826136e2565b9050602081019050919050565b6000819050919050565b600060039050919050565b600081519050919050565b600081519050919050565b6000602082019050919050565b600081905092915050565b600082825260208201905092915050565b600081905092915050565b600082825260208201905092915050565b600081905092915050565b600061337082613450565b915061337b83613450565b9250827fffffffffffffffffffffffffffffffffffffffffffffffffffffffffffffffff038211156133b0576133af6135af565b5b828201905092915050565b60006133c682613430565b9050919050565b60008115159050919050565b6000819050919050565b60007fffffffff0000000000000000000000000000000000000000000000000000000082169050919050565b600081905061341d82613a8a565b919050565b600061ffff82169050919050565b600073ffffffffffffffffffffffffffffffffffffffff82169050919050565b6000819050919050565b600063ffffffff82169050919050565b600067ffffffffffffffff82169050919050565b60006134898261340f565b9050919050565b82818337600083830152505050565b60005b838110156134bd5780820151818401526020810190506134a2565b838111156134cc576000848401525b50505050565b600060028204905060018216806134ea57607f821691505b602082108114156134fe576134fd61363c565b5b50919050565b61350d826136e2565b810181811067ffffffffffffffff8211171561352c5761352b61369a565b5b80604052505050565b600061354082613450565b91507fffffffffffffffffffffffffffffffffffffffffffffffffffffffffffffffff821415613573576135726135af565b5b600182019050919050565b600061358982613450565b915061359483613450565b9250826135a4576135a36135de565b5b828206905092915050565b7f4e487b7100000000000000000000000000000000000000000000000000000000600052601160045260246000fd5b7f4e487b7100000000000000000000000000000000000000000000000000000000600052601260045260246000fd5b7f4e487b7100000000000000000000000000000000000000000000000000000000600052602160045260246000fd5b7f4e487b7100000000000000000000000000000000000000000000000000000000600052602260045260246000fd5b7f4e487b7100000000000000000000000000000000000000000000000000000000600052603260045260246000fd5b7f4e487b7100000000000000000000000000000000000000000000000000000000600052604160045260246000fd5b600080fd5b600080fd5b600080fd5b600080fd5b600080fd5b6000601f19601f8301169050919050565b7f4552433732313a2063616c6c6572206973206e6f7420746f6b656e206f776e6560008201527f72206f7220617070726f76656400000000000000000000000000000000000000602082015250565b7f4552433732313a207472616e7366657220746f206e6f6e20455243373231526560008201527f63656976657220696d706c656d656e7465720000000000000000000000000000602082015250565b7f4f776e61626c653a206e6577206f776e657220697320746865207a65726f206160008201527f6464726573730000000000000000000000000000000000000000000000000000602082015250565b7f4552433732313a207472616e736665722066726f6d20696e636f72726563742060008201527f6f776e6572000000000000000000000000000000000000000000000000000000602082015250565b7f4552433732313a20746f6b656e20616c7265616479206d696e74656400000000600082015250565b7f4552433732313a207472616e7366657220746f20746865207a65726f2061646460008201527f7265737300000000000000000000000000000000000000000000000000000000602082015250565b7f4552433732313a20617070726f766520746f2063616c6c657200000000000000600082015250565b7f4552433732313a2061646472657373207a65726f206973206e6f74206120766160008201527f6c6964206f776e65720000000000000000000000000000000000000000000000602082015250565b7f45524337323155524953746f726167653a2055524920736574206f66206e6f6e60008201527f6578697374656e7420746f6b656e000000000000000000000000000000000000602082015250565b7f4552433732313a206d696e7420746f20746865207a65726f2061646472657373600082015250565b7f4f776e61626c653a2063616c6c6572206973206e6f7420746865206f776e6572600082015250565b7f4552433732313a20696e76616c696420746f6b656e2049440000000000000000600082015250565b7f4552433732313a20617070726f76616c20746f2063757272656e74206f776e6560008201527f7200000000000000000000000000000000000000000000000000000000000000602082015250565b50565b7f4552433732313a20617070726f76652063616c6c6572206973206e6f7420746f60008201527f6b656e206f776e6572206f7220617070726f76656420666f7220616c6c000000602082015250565b60038110613a9b57613a9a61360d565b5b50565b613aa7816133bb565b8114613ab257600080fd5b50565b613abe816133cd565b8114613ac957600080fd5b50565b613ad5816133e3565b8114613ae057600080fd5b50565b613aec81613450565b8114613af757600080fd5b5056fea26469706673582212209f92d1f9ef8f18766f2822e8ffc3789fbbc889df98d781f45da8f45a9106eaf764736f6c63430008070033",
  "devdoc": {
    "kind": "dev",
    "methods": {
      "approve(address,uint256)": {
        "details": "See {IERC721-approve}."
      },
      "balanceOf(address)": {
        "details": "See {IERC721-balanceOf}."
      },
      "getApproved(uint256)": {
        "details": "See {IERC721-getApproved}."
      },
      "isApprovedForAll(address,address)": {
        "details": "See {IERC721-isApprovedForAll}."
      },
      "name()": {
        "details": "See {IERC721Metadata-name}."
      },
      "owner()": {
        "details": "Returns the address of the current owner."
      },
      "ownerOf(uint256)": {
        "details": "See {IERC721-ownerOf}."
      },
      "renounceOwnership()": {
        "details": "Leaves the contract without owner. It will not be possible to call `onlyOwner` functions. Can only be called by the current owner. NOTE: Renouncing ownership will leave the contract without an owner, thereby disabling any functionality that is only available to the owner."
      },
      "safeTransferFrom(address,address,uint256)": {
        "details": "See {IERC721-safeTransferFrom}."
      },
      "safeTransferFrom(address,address,uint256,bytes)": {
        "details": "See {IERC721-safeTransferFrom}."
      },
      "setApprovalForAll(address,bool)": {
        "details": "See {IERC721-setApprovalForAll}."
      },
      "supportsInterface(bytes4)": {
        "details": "See {IERC165-supportsInterface}"
      },
      "symbol()": {
        "details": "See {IERC721Metadata-symbol}."
      },
      "tokenURI(uint256)": {
        "details": "See {IERC721Metadata-tokenURI}."
      },
      "transferFrom(address,address,uint256)": {
        "details": "See {IERC721-transferFrom}."
      },
      "transferOwnership(address)": {
        "details": "Transfers ownership of the contract to a new account (`newOwner`). Can only be called by the current owner."
      }
    },
    "version": 1
  },
  "userdoc": {
    "kind": "user",
    "methods": {},
    "version": 1
  },
  "storageLayout": {
    "storage": [
      {
        "astId": 1587,
        "contract": "contracts/RandomIpfsNft.sol:RandomIpfsNft",
        "label": "_name",
        "offset": 0,
        "slot": "0",
        "type": "t_string_storage"
      },
      {
        "astId": 1589,
        "contract": "contracts/RandomIpfsNft.sol:RandomIpfsNft",
        "label": "_symbol",
        "offset": 0,
        "slot": "1",
        "type": "t_string_storage"
      },
      {
        "astId": 1593,
        "contract": "contracts/RandomIpfsNft.sol:RandomIpfsNft",
        "label": "_owners",
        "offset": 0,
        "slot": "2",
        "type": "t_mapping(t_uint256,t_address)"
      },
      {
        "astId": 1597,
        "contract": "contracts/RandomIpfsNft.sol:RandomIpfsNft",
        "label": "_balances",
        "offset": 0,
        "slot": "3",
        "type": "t_mapping(t_address,t_uint256)"
      },
      {
        "astId": 1601,
        "contract": "contracts/RandomIpfsNft.sol:RandomIpfsNft",
        "label": "_tokenApprovals",
        "offset": 0,
        "slot": "4",
        "type": "t_mapping(t_uint256,t_address)"
      },
      {
        "astId": 1607,
        "contract": "contracts/RandomIpfsNft.sol:RandomIpfsNft",
        "label": "_operatorApprovals",
        "offset": 0,
        "slot": "5",
        "type": "t_mapping(t_address,t_mapping(t_address,t_bool))"
      },
      {
        "astId": 2638,
        "contract": "contracts/RandomIpfsNft.sol:RandomIpfsNft",
        "label": "_tokenURIs",
        "offset": 0,
        "slot": "6",
        "type": "t_mapping(t_uint256,t_string_storage)"
      },
      {
        "astId": 1428,
        "contract": "contracts/RandomIpfsNft.sol:RandomIpfsNft",
        "label": "_owner",
        "offset": 0,
        "slot": "7",
        "type": "t_address"
      },
      {
        "astId": 4871,
        "contract": "contracts/RandomIpfsNft.sol:RandomIpfsNft",
        "label": "s_requestIdToSender",
        "offset": 0,
        "slot": "8",
        "type": "t_mapping(t_uint256,t_address)"
      },
      {
        "astId": 4873,
        "contract": "contracts/RandomIpfsNft.sol:RandomIpfsNft",
        "label": "s_tokenCounter",
        "offset": 0,
        "slot": "9",
        "type": "t_uint256"
      },
      {
        "astId": 4879,
        "contract": "contracts/RandomIpfsNft.sol:RandomIpfsNft",
        "label": "s_dogTokenUris",
        "offset": 0,
        "slot": "10",
        "type": "t_array(t_string_storage)dyn_storage"
      }
    ],
    "types": {
      "t_address": {
        "encoding": "inplace",
        "label": "address",
        "numberOfBytes": "20"
      },
      "t_array(t_string_storage)dyn_storage": {
        "base": "t_string_storage",
        "encoding": "dynamic_array",
        "label": "string[]",
        "numberOfBytes": "32"
      },
      "t_bool": {
        "encoding": "inplace",
        "label": "bool",
        "numberOfBytes": "1"
      },
      "t_mapping(t_address,t_bool)": {
        "encoding": "mapping",
        "key": "t_address",
        "label": "mapping(address => bool)",
        "numberOfBytes": "32",
        "value": "t_bool"
      },
      "t_mapping(t_address,t_mapping(t_address,t_bool))": {
        "encoding": "mapping",
        "key": "t_address",
        "label": "mapping(address => mapping(address => bool))",
        "numberOfBytes": "32",
        "value": "t_mapping(t_address,t_bool)"
      },
      "t_mapping(t_address,t_uint256)": {
        "encoding": "mapping",
        "key": "t_address",
        "label": "mapping(address => uint256)",
        "numberOfBytes": "32",
        "value": "t_uint256"
      },
      "t_mapping(t_uint256,t_address)": {
        "encoding": "mapping",
        "key": "t_uint256",
        "label": "mapping(uint256 => address)",
        "numberOfBytes": "32",
        "value": "t_address"
      },
      "t_mapping(t_uint256,t_string_storage)": {
        "encoding": "mapping",
        "key": "t_uint256",
        "label": "mapping(uint256 => string)",
        "numberOfBytes": "32",
        "value": "t_string_storage"
      },
      "t_string_storage": {
        "encoding": "bytes",
        "label": "string",
        "numberOfBytes": "32"
      },
      "t_uint256": {
        "encoding": "inplace",
        "label": "uint256",
        "numberOfBytes": "32"
      }
    }
  }
}